{
  "_format": "hh-sol-artifact-1",
  "contractName": "Token",
  "sourceName": "contracts/token.sol",
  "abi": [
    {
      "inputs": [
        {
          "internalType": "string",
          "name": "name",
          "type": "string"
        },
        {
          "internalType": "string",
          "name": "symbol",
          "type": "string"
        }
      ],
      "stateMutability": "nonpayable",
      "type": "constructor"
    },
    {
      "anonymous": false,
      "inputs": [
        {
          "indexed": true,
          "internalType": "address",
          "name": "owner",
          "type": "address"
        },
        {
          "indexed": true,
          "internalType": "address",
          "name": "spender",
          "type": "address"
        },
        {
          "indexed": false,
          "internalType": "uint256",
          "name": "value",
          "type": "uint256"
        }
      ],
      "name": "Approval",
      "type": "event"
    },
    {
      "anonymous": false,
      "inputs": [
        {
          "indexed": true,
          "internalType": "address",
          "name": "from",
          "type": "address"
        },
        {
          "indexed": true,
          "internalType": "address",
          "name": "to",
          "type": "address"
        },
        {
          "indexed": false,
          "internalType": "uint256",
          "name": "value",
          "type": "uint256"
        }
      ],
      "name": "Transfer",
      "type": "event"
    },
    {
      "anonymous": false,
      "inputs": [
        {
          "indexed": false,
          "internalType": "uint256",
          "name": "time",
          "type": "uint256"
        }
      ],
      "name": "foo",
      "type": "event"
    },
    {
      "inputs": [
        {
          "internalType": "address",
          "name": "owner",
          "type": "address"
        },
        {
          "internalType": "address",
          "name": "spender",
          "type": "address"
        }
      ],
      "name": "allowance",
      "outputs": [
        {
          "internalType": "uint256",
          "name": "",
          "type": "uint256"
        }
      ],
      "stateMutability": "view",
      "type": "function"
    },
    {
      "inputs": [
        {
          "internalType": "address",
          "name": "spender",
          "type": "address"
        },
        {
          "internalType": "uint256",
          "name": "amount",
          "type": "uint256"
        }
      ],
      "name": "approve",
      "outputs": [
        {
          "internalType": "bool",
          "name": "",
          "type": "bool"
        }
      ],
      "stateMutability": "nonpayable",
      "type": "function"
    },
    {
      "inputs": [
        {
          "internalType": "address",
          "name": "account",
          "type": "address"
        }
      ],
      "name": "balanceOf",
      "outputs": [
        {
          "internalType": "uint256",
          "name": "",
          "type": "uint256"
        }
      ],
      "stateMutability": "view",
      "type": "function"
    },
    {
      "inputs": [
        {
          "internalType": "uint256",
          "name": "time",
          "type": "uint256"
        }
      ],
      "name": "callFoo",
      "outputs": [],
      "stateMutability": "nonpayable",
      "type": "function"
    },
    {
      "inputs": [],
      "name": "decimals",
      "outputs": [
        {
          "internalType": "uint8",
          "name": "",
          "type": "uint8"
        }
      ],
      "stateMutability": "view",
      "type": "function"
    },
    {
      "inputs": [
        {
          "internalType": "address",
          "name": "spender",
          "type": "address"
        },
        {
          "internalType": "uint256",
          "name": "subtractedValue",
          "type": "uint256"
        }
      ],
      "name": "decreaseAllowance",
      "outputs": [
        {
          "internalType": "bool",
          "name": "",
          "type": "bool"
        }
      ],
      "stateMutability": "nonpayable",
      "type": "function"
    },
    {
      "inputs": [
        {
          "internalType": "address",
          "name": "spender",
          "type": "address"
        },
        {
          "internalType": "uint256",
          "name": "addedValue",
          "type": "uint256"
        }
      ],
      "name": "increaseAllowance",
      "outputs": [
        {
          "internalType": "bool",
          "name": "",
          "type": "bool"
        }
      ],
      "stateMutability": "nonpayable",
      "type": "function"
    },
    {
      "inputs": [],
      "name": "issue_date",
      "outputs": [
        {
          "internalType": "uint256",
          "name": "",
          "type": "uint256"
        }
      ],
      "stateMutability": "view",
      "type": "function"
    },
    {
      "inputs": [],
      "name": "name",
      "outputs": [
        {
          "internalType": "string",
          "name": "",
          "type": "string"
        }
      ],
      "stateMutability": "view",
      "type": "function"
    },
    {
      "inputs": [],
      "name": "owner",
      "outputs": [
        {
          "internalType": "address",
          "name": "",
          "type": "address"
        }
      ],
      "stateMutability": "view",
      "type": "function"
    },
    {
      "inputs": [],
      "name": "symbol",
      "outputs": [
        {
          "internalType": "string",
          "name": "",
          "type": "string"
        }
      ],
      "stateMutability": "view",
      "type": "function"
    },
    {
      "inputs": [],
      "name": "totalSupply",
      "outputs": [
        {
          "internalType": "uint256",
          "name": "",
          "type": "uint256"
        }
      ],
      "stateMutability": "view",
      "type": "function"
    },
    {
      "inputs": [
        {
          "internalType": "address",
          "name": "to",
          "type": "address"
        },
        {
          "internalType": "uint256",
          "name": "amount",
          "type": "uint256"
        }
      ],
      "name": "transfer",
      "outputs": [
        {
          "internalType": "bool",
          "name": "",
          "type": "bool"
        }
      ],
      "stateMutability": "nonpayable",
      "type": "function"
    },
    {
      "inputs": [
        {
          "internalType": "address",
          "name": "from",
          "type": "address"
        },
        {
          "internalType": "address",
          "name": "to",
          "type": "address"
        },
        {
          "internalType": "uint256",
          "name": "amount",
          "type": "uint256"
        }
      ],
      "name": "transferFrom",
      "outputs": [
        {
          "internalType": "bool",
          "name": "",
          "type": "bool"
        }
      ],
      "stateMutability": "nonpayable",
      "type": "function"
    }
  ],
  "bytecode": "0x6080604052426006553480156200001557600080fd5b5060405162001fc538038062001fc583398181016040528101906200003b919062000528565b8181816003908051906020019062000055929190620003d7565b5080600490805190602001906200006e929190620003d7565b505050620000b133620000866200015260201b60201c565b60ff16600a620000979190620007ba565b6064620000a59190620008f7565b6200015b60201b60201c565b6200010f6040518060400160405280600781526020017f646563696d616c00000000000000000000000000000000000000000000000000815250620000fb6200015260201b60201c565b60ff16620002c960201b6200069e1760201c565b7f2fbebd3821c4e005fbe0a9002cc1bd25dc266d788dba1dbcb39cc66a07e7b38b6006546040516200014291906200066a565b60405180910390a1505062000ad8565b60006012905090565b600073ffffffffffffffffffffffffffffffffffffffff168273ffffffffffffffffffffffffffffffffffffffff161415620001ce576040517f08c379a0000000000000000000000000000000000000000000000000000000008152600401620001c59062000648565b60405180910390fd5b620001e2600083836200036f60201b60201c565b8060026000828254620001f6919062000702565b92505081905550806000808473ffffffffffffffffffffffffffffffffffffffff1673ffffffffffffffffffffffffffffffffffffffff168152602001908152602001600020600082825401925050819055508173ffffffffffffffffffffffffffffffffffffffff16600073ffffffffffffffffffffffffffffffffffffffff167fddf252ad1be2c89b69c2b068fc378daa952ba7f163c4a11628f55a4df523b3ef83604051620002a991906200066a565b60405180910390a3620002c5600083836200037460201b60201c565b5050565b6200036b8282604051602401620002e292919062000614565b6040516020818303038152906040527fb60e72cc000000000000000000000000000000000000000000000000000000007bffffffffffffffffffffffffffffffffffffffffffffffffffffffff19166020820180517bffffffffffffffffffffffffffffffffffffffffffffffffffffffff83818316178352505050506200037960201b60201c565b5050565b505050565b505050565b6200039f816200039a620003a260201b6200073a17620003c360201b60201c565b60201c565b50565b60006a636f6e736f6c652e6c6f679050600080835160208501845afa505050565b6200046860201b62000c6117819050919050565b828054620003e59062000998565b90600052602060002090601f01602090048101928262000409576000855562000455565b82601f106200042457805160ff191683800117855562000455565b8280016001018555821562000455579182015b828111156200045457825182559160200191906001019062000437565b5b50905062000464919062000497565b5090565b7f4e487b7100000000000000000000000000000000000000000000000000000000600052605160045260246000fd5b5b80821115620004b257600081600090555060010162000498565b5090565b6000620004cd620004c784620006b0565b62000687565b905082815260208101848484011115620004e657600080fd5b620004f384828562000962565b509392505050565b600082601f8301126200050d57600080fd5b81516200051f848260208601620004b6565b91505092915050565b600080604083850312156200053c57600080fd5b600083015167ffffffffffffffff8111156200055757600080fd5b6200056585828601620004fb565b925050602083015167ffffffffffffffff8111156200058357600080fd5b6200059185828601620004fb565b9150509250929050565b6000620005a882620006e6565b620005b48185620006f1565b9350620005c681856020860162000962565b620005d18162000a91565b840191505092915050565b6000620005eb601f83620006f1565b9150620005f88262000aaf565b602082019050919050565b6200060e8162000958565b82525050565b600060408201905081810360008301526200063081856200059b565b905062000641602083018462000603565b9392505050565b600060208201905081810360008301526200066381620005dc565b9050919050565b600060208201905062000681600083018462000603565b92915050565b600062000693620006a6565b9050620006a18282620009ce565b919050565b6000604051905090565b600067ffffffffffffffff821115620006ce57620006cd62000a62565b5b620006d98262000a91565b9050602081019050919050565b600081519050919050565b600082825260208201905092915050565b60006200070f8262000958565b91506200071c8362000958565b9250827fffffffffffffffffffffffffffffffffffffffffffffffffffffffffffffffff0382111562000754576200075362000a04565b5b828201905092915050565b6000808291508390505b6001851115620007b15780860481111562000789576200078862000a04565b5b6001851615620007995780820291505b8081029050620007a98562000aa2565b945062000769565b94509492505050565b6000620007c78262000958565b9150620007d48362000958565b9250620008037fffffffffffffffffffffffffffffffffffffffffffffffffffffffffffffffff84846200080b565b905092915050565b6000826200081d5760019050620008f0565b816200082d5760009050620008f0565b8160018114620008465760028114620008515762000887565b6001915050620008f0565b60ff84111562000866576200086562000a04565b5b8360020a91508482111562000880576200087f62000a04565b5b50620008f0565b5060208310610133831016604e8410600b8410161715620008c15782820a905083811115620008bb57620008ba62000a04565b5b620008f0565b620008d084848460016200075f565b92509050818404811115620008ea57620008e962000a04565b5b81810290505b9392505050565b6000620009048262000958565b9150620009118362000958565b9250817fffffffffffffffffffffffffffffffffffffffffffffffffffffffffffffffff04831182151516156200094d576200094c62000a04565b5b828202905092915050565b6000819050919050565b60005b838110156200098257808201518184015260208101905062000965565b8381111562000992576000848401525b50505050565b60006002820490506001821680620009b157607f821691505b60208210811415620009c857620009c762000a33565b5b50919050565b620009d98262000a91565b810181811067ffffffffffffffff82111715620009fb57620009fa62000a62565b5b80604052505050565b7f4e487b7100000000000000000000000000000000000000000000000000000000600052601160045260246000fd5b7f4e487b7100000000000000000000000000000000000000000000000000000000600052602260045260246000fd5b7f4e487b7100000000000000000000000000000000000000000000000000000000600052604160045260246000fd5b6000601f19601f8301169050919050565b60008160011c9050919050565b7f45524332303a206d696e7420746f20746865207a65726f206164647265737300600082015250565b6114dd8062000ae86000396000f3fe608060405234801561001057600080fd5b50600436106100ea5760003560e01c806372fb53b01161008c57806395d89b411161006657806395d89b4114610261578063a457c2d71461027f578063a9059cbb146102af578063dd62ed3e146102df576100ea565b806372fb53b01461020957806386508440146102255780638da5cb5b14610243576100ea565b806323b872dd116100c857806323b872dd1461015b578063313ce5671461018b57806339509351146101a957806370a08231146101d9576100ea565b806306fdde03146100ef578063095ea7b31461010d57806318160ddd1461013d575b600080fd5b6100f761030f565b6040516101049190610f73565b60405180910390f35b61012760048036038101906101229190610d6e565b6103a1565b6040516101349190610f58565b60405180910390f35b6101456103c4565b60405161015291906110a5565b60405180910390f35b61017560048036038101906101709190610d1f565b6103ce565b6040516101829190610f58565b60405180910390f35b6101936103fd565b6040516101a091906110c0565b60405180910390f35b6101c360048036038101906101be9190610d6e565b610406565b6040516101d09190610f58565b60405180910390f35b6101f360048036038101906101ee9190610cba565b61043d565b60405161020091906110a5565b60405180910390f35b610223600480360381019061021e9190610daa565b610485565b005b61022d6104bf565b60405161023a91906110a5565b60405180910390f35b61024b6104c5565b6040516102589190610f3d565b60405180910390f35b6102696104eb565b6040516102769190610f73565b60405180910390f35b61029960048036038101906102949190610d6e565b61057d565b6040516102a69190610f58565b60405180910390f35b6102c960048036038101906102c49190610d6e565b6105f4565b6040516102d69190610f58565b60405180910390f35b6102f960048036038101906102f49190610ce3565b610617565b60405161030691906110a5565b60405180910390f35b60606003805461031e906111d5565b80601f016020809104026020016040519081016040528092919081815260200182805461034a906111d5565b80156103975780601f1061036c57610100808354040283529160200191610397565b820191906000526020600020905b81548152906001019060200180831161037a57829003601f168201915b5050505050905090565b6000806103ac61075b565b90506103b9818585610763565b600191505092915050565b6000600254905090565b6000806103d961075b565b90506103e685828561092e565b6103f18585856109ba565b60019150509392505050565b60006012905090565b60008061041161075b565b90506104328185856104238589610617565b61042d91906110f7565b610763565b600191505092915050565b60008060008373ffffffffffffffffffffffffffffffffffffffff1673ffffffffffffffffffffffffffffffffffffffff168152602001908152602001600020549050919050565b7f2fbebd3821c4e005fbe0a9002cc1bd25dc266d788dba1dbcb39cc66a07e7b38b816040516104b491906110a5565b60405180910390a150565b60065481565b600560009054906101000a900473ffffffffffffffffffffffffffffffffffffffff1681565b6060600480546104fa906111d5565b80601f0160208091040260200160405190810160405280929190818152602001828054610526906111d5565b80156105735780601f1061054857610100808354040283529160200191610573565b820191906000526020600020905b81548152906001019060200180831161055657829003601f168201915b5050505050905090565b60008061058861075b565b905060006105968286610617565b9050838110156105db576040517f08c379a00000000000000000000000000000000000000000000000000000000081526004016105d290611085565b60405180910390fd5b6105e88286868403610763565b60019250505092915050565b6000806105ff61075b565b905061060c8185856109ba565b600191505092915050565b6000600160008473ffffffffffffffffffffffffffffffffffffffff1673ffffffffffffffffffffffffffffffffffffffff16815260200190815260200160002060008373ffffffffffffffffffffffffffffffffffffffff1673ffffffffffffffffffffffffffffffffffffffff16815260200190815260200160002054905092915050565b61073682826040516024016106b4929190610f95565b6040516020818303038152906040527fb60e72cc000000000000000000000000000000000000000000000000000000007bffffffffffffffffffffffffffffffffffffffffffffffffffffffff19166020820180517bffffffffffffffffffffffffffffffffffffffffffffffffffffffff8381831617835250505050610c32565b5050565b60006a636f6e736f6c652e6c6f679050600080835160208501845afa505050565b600033905090565b600073ffffffffffffffffffffffffffffffffffffffff168373ffffffffffffffffffffffffffffffffffffffff1614156107d3576040517f08c379a00000000000000000000000000000000000000000000000000000000081526004016107ca90611065565b60405180910390fd5b600073ffffffffffffffffffffffffffffffffffffffff168273ffffffffffffffffffffffffffffffffffffffff161415610843576040517f08c379a000000000000000000000000000000000000000000000000000000000815260040161083a90610fe5565b60405180910390fd5b80600160008573ffffffffffffffffffffffffffffffffffffffff1673ffffffffffffffffffffffffffffffffffffffff16815260200190815260200160002060008473ffffffffffffffffffffffffffffffffffffffff1673ffffffffffffffffffffffffffffffffffffffff168152602001908152602001600020819055508173ffffffffffffffffffffffffffffffffffffffff168373ffffffffffffffffffffffffffffffffffffffff167f8c5be1e5ebec7d5bd14f71427d1e84f3dd0314c0f7b2291e5b200ac8c7c3b9258360405161092191906110a5565b60405180910390a3505050565b600061093a8484610617565b90507fffffffffffffffffffffffffffffffffffffffffffffffffffffffffffffffff81146109b457818110156109a6576040517f08c379a000000000000000000000000000000000000000000000000000000000815260040161099d90611005565b60405180910390fd5b6109b38484848403610763565b5b50505050565b600073ffffffffffffffffffffffffffffffffffffffff168373ffffffffffffffffffffffffffffffffffffffff161415610a2a576040517f08c379a0000000000000000000000000000000000000000000000000000000008152600401610a2190611045565b60405180910390fd5b600073ffffffffffffffffffffffffffffffffffffffff168273ffffffffffffffffffffffffffffffffffffffff161415610a9a576040517f08c379a0000000000000000000000000000000000000000000000000000000008152600401610a9190610fc5565b60405180910390fd5b610aa5838383610c4c565b60008060008573ffffffffffffffffffffffffffffffffffffffff1673ffffffffffffffffffffffffffffffffffffffff16815260200190815260200160002054905081811015610b2b576040517f08c379a0000000000000000000000000000000000000000000000000000000008152600401610b2290611025565b60405180910390fd5b8181036000808673ffffffffffffffffffffffffffffffffffffffff1673ffffffffffffffffffffffffffffffffffffffff16815260200190815260200160002081905550816000808573ffffffffffffffffffffffffffffffffffffffff1673ffffffffffffffffffffffffffffffffffffffff168152602001908152602001600020600082825401925050819055508273ffffffffffffffffffffffffffffffffffffffff168473ffffffffffffffffffffffffffffffffffffffff167fddf252ad1be2c89b69c2b068fc378daa952ba7f163c4a11628f55a4df523b3ef84604051610c1991906110a5565b60405180910390a3610c2c848484610c51565b50505050565b610c4981610c4161073a610c56565b63ffffffff16565b50565b505050565b505050565b610c61819050919050565b7f4e487b7100000000000000000000000000000000000000000000000000000000600052605160045260246000fd5b600081359050610c9f81611479565b92915050565b600081359050610cb481611490565b92915050565b600060208284031215610ccc57600080fd5b6000610cda84828501610c90565b91505092915050565b60008060408385031215610cf657600080fd5b6000610d0485828601610c90565b9250506020610d1585828601610c90565b9150509250929050565b600080600060608486031215610d3457600080fd5b6000610d4286828701610c90565b9350506020610d5386828701610c90565b9250506040610d6486828701610ca5565b9150509250925092565b60008060408385031215610d8157600080fd5b6000610d8f85828601610c90565b9250506020610da085828601610ca5565b9150509250929050565b600060208284031215610dbc57600080fd5b6000610dca84828501610ca5565b91505092915050565b610ddc8161114d565b82525050565b610deb8161115f565b82525050565b6000610dfc826110db565b610e0681856110e6565b9350610e168185602086016111a2565b610e1f81611265565b840191505092915050565b6000610e376023836110e6565b9150610e4282611276565b604082019050919050565b6000610e5a6022836110e6565b9150610e65826112c5565b604082019050919050565b6000610e7d601d836110e6565b9150610e8882611314565b602082019050919050565b6000610ea06026836110e6565b9150610eab8261133d565b604082019050919050565b6000610ec36025836110e6565b9150610ece8261138c565b604082019050919050565b6000610ee66024836110e6565b9150610ef1826113db565b604082019050919050565b6000610f096025836110e6565b9150610f148261142a565b604082019050919050565b610f288161118b565b82525050565b610f3781611195565b82525050565b6000602082019050610f526000830184610dd3565b92915050565b6000602082019050610f6d6000830184610de2565b92915050565b60006020820190508181036000830152610f8d8184610df1565b905092915050565b60006040820190508181036000830152610faf8185610df1565b9050610fbe6020830184610f1f565b9392505050565b60006020820190508181036000830152610fde81610e2a565b9050919050565b60006020820190508181036000830152610ffe81610e4d565b9050919050565b6000602082019050818103600083015261101e81610e70565b9050919050565b6000602082019050818103600083015261103e81610e93565b9050919050565b6000602082019050818103600083015261105e81610eb6565b9050919050565b6000602082019050818103600083015261107e81610ed9565b9050919050565b6000602082019050818103600083015261109e81610efc565b9050919050565b60006020820190506110ba6000830184610f1f565b92915050565b60006020820190506110d56000830184610f2e565b92915050565b600081519050919050565b600082825260208201905092915050565b60006111028261118b565b915061110d8361118b565b9250827fffffffffffffffffffffffffffffffffffffffffffffffffffffffffffffffff0382111561114257611141611207565b5b828201905092915050565b60006111588261116b565b9050919050565b60008115159050919050565b600073ffffffffffffffffffffffffffffffffffffffff82169050919050565b6000819050919050565b600060ff82169050919050565b60005b838110156111c05780820151818401526020810190506111a5565b838111156111cf576000848401525b50505050565b600060028204905060018216806111ed57607f821691505b6020821081141561120157611200611236565b5b50919050565b7f4e487b7100000000000000000000000000000000000000000000000000000000600052601160045260246000fd5b7f4e487b7100000000000000000000000000000000000000000000000000000000600052602260045260246000fd5b6000601f19601f8301169050919050565b7f45524332303a207472616e7366657220746f20746865207a65726f206164647260008201527f6573730000000000000000000000000000000000000000000000000000000000602082015250565b7f45524332303a20617070726f766520746f20746865207a65726f20616464726560008201527f7373000000000000000000000000000000000000000000000000000000000000602082015250565b7f45524332303a20696e73756666696369656e7420616c6c6f77616e6365000000600082015250565b7f45524332303a207472616e7366657220616d6f756e742065786365656473206260008201527f616c616e63650000000000000000000000000000000000000000000000000000602082015250565b7f45524332303a207472616e736665722066726f6d20746865207a65726f20616460008201527f6472657373000000000000000000000000000000000000000000000000000000602082015250565b7f45524332303a20617070726f76652066726f6d20746865207a65726f2061646460008201527f7265737300000000000000000000000000000000000000000000000000000000602082015250565b7f45524332303a2064656372656173656420616c6c6f77616e63652062656c6f7760008201527f207a65726f000000000000000000000000000000000000000000000000000000602082015250565b6114828161114d565b811461148d57600080fd5b50565b6114998161118b565b81146114a457600080fd5b5056fea2646970667358221220378092ac72dcd5189d8eaf5a5b42755f3041da206a2bc3e08c00cf96fc4c5f1764736f6c63430008010033",
  "linkReferences": {},
  "deployedLinkReferences": {}
}