{
  "_format": "hh-sol-artifact-1",
  "contractName": "Token",
  "sourceName": "contracts/token.sol",
  "abi": [
    {
      "inputs": [
        {
          "internalType": "string",
          "name": "name",
          "type": "string"
        },
        {
          "internalType": "string",
          "name": "symbol",
          "type": "string"
        }
      ],
      "stateMutability": "nonpayable",
      "type": "constructor"
    },
    {
      "anonymous": false,
      "inputs": [
        {
          "indexed": true,
          "internalType": "address",
          "name": "owner",
          "type": "address"
        },
        {
          "indexed": true,
          "internalType": "address",
          "name": "spender",
          "type": "address"
        },
        {
          "indexed": false,
          "internalType": "uint256",
          "name": "value",
          "type": "uint256"
        }
      ],
      "name": "Approval",
      "type": "event"
    },
    {
      "anonymous": false,
      "inputs": [
        {
          "indexed": true,
          "internalType": "address",
          "name": "from",
          "type": "address"
        },
        {
          "indexed": true,
          "internalType": "address",
          "name": "to",
          "type": "address"
        },
        {
          "indexed": false,
          "internalType": "uint256",
          "name": "value",
          "type": "uint256"
        }
      ],
      "name": "Transfer",
      "type": "event"
    },
    {
      "anonymous": false,
      "inputs": [
        {
          "indexed": false,
          "internalType": "uint256",
          "name": "time",
          "type": "uint256"
        }
      ],
      "name": "foo",
      "type": "event"
    },
    {
      "inputs": [
        {
          "internalType": "address",
          "name": "owner",
          "type": "address"
        },
        {
          "internalType": "address",
          "name": "spender",
          "type": "address"
        }
      ],
      "name": "allowance",
      "outputs": [
        {
          "internalType": "uint256",
          "name": "",
          "type": "uint256"
        }
      ],
      "stateMutability": "view",
      "type": "function"
    },
    {
      "inputs": [
        {
          "internalType": "address",
          "name": "spender",
          "type": "address"
        },
        {
          "internalType": "uint256",
          "name": "amount",
          "type": "uint256"
        }
      ],
      "name": "approve",
      "outputs": [
        {
          "internalType": "bool",
          "name": "",
          "type": "bool"
        }
      ],
      "stateMutability": "nonpayable",
      "type": "function"
    },
    {
      "inputs": [
        {
          "internalType": "address",
          "name": "account",
          "type": "address"
        }
      ],
      "name": "balanceOf",
      "outputs": [
        {
          "internalType": "uint256",
          "name": "",
          "type": "uint256"
        }
      ],
      "stateMutability": "view",
      "type": "function"
    },
    {
      "inputs": [
        {
          "internalType": "uint256",
          "name": "time",
          "type": "uint256"
        }
      ],
      "name": "callFoo",
      "outputs": [],
      "stateMutability": "nonpayable",
      "type": "function"
    },
    {
      "inputs": [],
      "name": "decimals",
      "outputs": [
        {
          "internalType": "uint8",
          "name": "",
          "type": "uint8"
        }
      ],
      "stateMutability": "view",
      "type": "function"
    },
    {
      "inputs": [
        {
          "internalType": "address",
          "name": "spender",
          "type": "address"
        },
        {
          "internalType": "uint256",
          "name": "subtractedValue",
          "type": "uint256"
        }
      ],
      "name": "decreaseAllowance",
      "outputs": [
        {
          "internalType": "bool",
          "name": "",
          "type": "bool"
        }
      ],
      "stateMutability": "nonpayable",
      "type": "function"
    },
    {
      "inputs": [
        {
          "internalType": "address",
          "name": "spender",
          "type": "address"
        },
        {
          "internalType": "uint256",
          "name": "addedValue",
          "type": "uint256"
        }
      ],
      "name": "increaseAllowance",
      "outputs": [
        {
          "internalType": "bool",
          "name": "",
          "type": "bool"
        }
      ],
      "stateMutability": "nonpayable",
      "type": "function"
    },
    {
      "inputs": [],
      "name": "issue_date",
      "outputs": [
        {
          "internalType": "uint256",
          "name": "",
          "type": "uint256"
        }
      ],
      "stateMutability": "view",
      "type": "function"
    },
    {
      "inputs": [],
      "name": "name",
      "outputs": [
        {
          "internalType": "string",
          "name": "",
          "type": "string"
        }
      ],
      "stateMutability": "view",
      "type": "function"
    },
    {
      "inputs": [],
      "name": "owner",
      "outputs": [
        {
          "internalType": "address",
          "name": "",
          "type": "address"
        }
      ],
      "stateMutability": "view",
      "type": "function"
    },
    {
      "inputs": [],
      "name": "symbol",
      "outputs": [
        {
          "internalType": "string",
          "name": "",
          "type": "string"
        }
      ],
      "stateMutability": "view",
      "type": "function"
    },
    {
      "inputs": [],
      "name": "totalSupply",
      "outputs": [
        {
          "internalType": "uint256",
          "name": "",
          "type": "uint256"
        }
      ],
      "stateMutability": "view",
      "type": "function"
    },
    {
      "inputs": [
        {
          "internalType": "address",
          "name": "to",
          "type": "address"
        },
        {
          "internalType": "uint256",
          "name": "amount",
          "type": "uint256"
        }
      ],
      "name": "transfer",
      "outputs": [
        {
          "internalType": "bool",
          "name": "",
          "type": "bool"
        }
      ],
      "stateMutability": "nonpayable",
      "type": "function"
    },
    {
      "inputs": [
        {
          "internalType": "address",
          "name": "from",
          "type": "address"
        },
        {
          "internalType": "address",
          "name": "to",
          "type": "address"
        },
        {
          "internalType": "uint256",
          "name": "amount",
          "type": "uint256"
        }
      ],
      "name": "transferFrom",
      "outputs": [
        {
          "internalType": "bool",
          "name": "",
          "type": "bool"
        }
      ],
      "stateMutability": "nonpayable",
      "type": "function"
    }
  ],
  "bytecode": "0x6080604052426006553480156200001557600080fd5b5060405162001c7338038062001c7383398181016040528101906200003b919062000397565b818181600390805190602001906200005592919062000275565b5080600490805190602001906200006e92919062000275565b505050620000b13362000086620000f460201b60201c565b60ff16600a620000979190620005a9565b6064620000a59190620006e6565b620000fd60201b60201c565b7f2fbebd3821c4e005fbe0a9002cc1bd25dc266d788dba1dbcb39cc66a07e7b38b600654604051620000e4919062000464565b60405180910390a15050620008c7565b60006012905090565b600073ffffffffffffffffffffffffffffffffffffffff168273ffffffffffffffffffffffffffffffffffffffff16141562000170576040517f08c379a0000000000000000000000000000000000000000000000000000000008152600401620001679062000442565b60405180910390fd5b62000184600083836200026b60201b60201c565b8060026000828254620001989190620004f1565b92505081905550806000808473ffffffffffffffffffffffffffffffffffffffff1673ffffffffffffffffffffffffffffffffffffffff168152602001908152602001600020600082825401925050819055508173ffffffffffffffffffffffffffffffffffffffff16600073ffffffffffffffffffffffffffffffffffffffff167fddf252ad1be2c89b69c2b068fc378daa952ba7f163c4a11628f55a4df523b3ef836040516200024b919062000464565b60405180910390a362000267600083836200027060201b60201c565b5050565b505050565b505050565b828054620002839062000787565b90600052602060002090601f016020900481019282620002a75760008555620002f3565b82601f10620002c257805160ff1916838001178555620002f3565b82800160010185558215620002f3579182015b82811115620002f2578251825591602001919060010190620002d5565b5b50905062000302919062000306565b5090565b5b808211156200032157600081600090555060010162000307565b5090565b60006200033c6200033684620004aa565b62000481565b9050828152602081018484840111156200035557600080fd5b6200036284828562000751565b509392505050565b600082601f8301126200037c57600080fd5b81516200038e84826020860162000325565b91505092915050565b60008060408385031215620003ab57600080fd5b600083015167ffffffffffffffff811115620003c657600080fd5b620003d4858286016200036a565b925050602083015167ffffffffffffffff811115620003f257600080fd5b62000400858286016200036a565b9150509250929050565b600062000419601f83620004e0565b915062000426826200089e565b602082019050919050565b6200043c8162000747565b82525050565b600060208201905081810360008301526200045d816200040a565b9050919050565b60006020820190506200047b600083018462000431565b92915050565b60006200048d620004a0565b90506200049b8282620007bd565b919050565b6000604051905090565b600067ffffffffffffffff821115620004c857620004c762000851565b5b620004d38262000880565b9050602081019050919050565b600082825260208201905092915050565b6000620004fe8262000747565b91506200050b8362000747565b9250827fffffffffffffffffffffffffffffffffffffffffffffffffffffffffffffffff03821115620005435762000542620007f3565b5b828201905092915050565b6000808291508390505b6001851115620005a057808604811115620005785762000577620007f3565b5b6001851615620005885780820291505b8081029050620005988562000891565b945062000558565b94509492505050565b6000620005b68262000747565b9150620005c38362000747565b9250620005f27fffffffffffffffffffffffffffffffffffffffffffffffffffffffffffffffff8484620005fa565b905092915050565b6000826200060c5760019050620006df565b816200061c5760009050620006df565b8160018114620006355760028114620006405762000676565b6001915050620006df565b60ff841115620006555762000654620007f3565b5b8360020a9150848211156200066f576200066e620007f3565b5b50620006df565b5060208310610133831016604e8410600b8410161715620006b05782820a905083811115620006aa57620006a9620007f3565b5b620006df565b620006bf84848460016200054e565b92509050818404811115620006d957620006d8620007f3565b5b81810290505b9392505050565b6000620006f38262000747565b9150620007008362000747565b9250817fffffffffffffffffffffffffffffffffffffffffffffffffffffffffffffffff04831182151516156200073c576200073b620007f3565b5b828202905092915050565b6000819050919050565b60005b838110156200077157808201518184015260208101905062000754565b8381111562000781576000848401525b50505050565b60006002820490506001821680620007a057607f821691505b60208210811415620007b757620007b662000822565b5b50919050565b620007c88262000880565b810181811067ffffffffffffffff82111715620007ea57620007e962000851565b5b80604052505050565b7f4e487b7100000000000000000000000000000000000000000000000000000000600052601160045260246000fd5b7f4e487b7100000000000000000000000000000000000000000000000000000000600052602260045260246000fd5b7f4e487b7100000000000000000000000000000000000000000000000000000000600052604160045260246000fd5b6000601f19601f8301169050919050565b60008160011c9050919050565b7f45524332303a206d696e7420746f20746865207a65726f206164647265737300600082015250565b61139c80620008d76000396000f3fe608060405234801561001057600080fd5b50600436106100ea5760003560e01c806372fb53b01161008c57806395d89b411161006657806395d89b4114610261578063a457c2d71461027f578063a9059cbb146102af578063dd62ed3e146102df576100ea565b806372fb53b01461020957806386508440146102255780638da5cb5b14610243576100ea565b806323b872dd116100c857806323b872dd1461015b578063313ce5671461018b57806339509351146101a957806370a08231146101d9576100ea565b806306fdde03146100ef578063095ea7b31461010d57806318160ddd1461013d575b600080fd5b6100f761030f565b6040516101049190610e62565b60405180910390f35b61012760048036038101906101229190610c5d565b6103a1565b6040516101349190610e47565b60405180910390f35b6101456103c4565b6040516101529190610f64565b60405180910390f35b61017560048036038101906101709190610c0e565b6103ce565b6040516101829190610e47565b60405180910390f35b6101936103fd565b6040516101a09190610f7f565b60405180910390f35b6101c360048036038101906101be9190610c5d565b610406565b6040516101d09190610e47565b60405180910390f35b6101f360048036038101906101ee9190610ba9565b61043d565b6040516102009190610f64565b60405180910390f35b610223600480360381019061021e9190610c99565b610485565b005b61022d6104bf565b60405161023a9190610f64565b60405180910390f35b61024b6104c5565b6040516102589190610e2c565b60405180910390f35b6102696104eb565b6040516102769190610e62565b60405180910390f35b61029960048036038101906102949190610c5d565b61057d565b6040516102a69190610e47565b60405180910390f35b6102c960048036038101906102c49190610c5d565b6105f4565b6040516102d69190610e47565b60405180910390f35b6102f960048036038101906102f49190610bd2565b610617565b6040516103069190610f64565b60405180910390f35b60606003805461031e90611094565b80601f016020809104026020016040519081016040528092919081815260200182805461034a90611094565b80156103975780601f1061036c57610100808354040283529160200191610397565b820191906000526020600020905b81548152906001019060200180831161037a57829003601f168201915b5050505050905090565b6000806103ac61069e565b90506103b98185856106a6565b600191505092915050565b6000600254905090565b6000806103d961069e565b90506103e6858285610871565b6103f18585856108fd565b60019150509392505050565b60006012905090565b60008061041161069e565b90506104328185856104238589610617565b61042d9190610fb6565b6106a6565b600191505092915050565b60008060008373ffffffffffffffffffffffffffffffffffffffff1673ffffffffffffffffffffffffffffffffffffffff168152602001908152602001600020549050919050565b7f2fbebd3821c4e005fbe0a9002cc1bd25dc266d788dba1dbcb39cc66a07e7b38b816040516104b49190610f64565b60405180910390a150565b60065481565b600560009054906101000a900473ffffffffffffffffffffffffffffffffffffffff1681565b6060600480546104fa90611094565b80601f016020809104026020016040519081016040528092919081815260200182805461052690611094565b80156105735780601f1061054857610100808354040283529160200191610573565b820191906000526020600020905b81548152906001019060200180831161055657829003601f168201915b5050505050905090565b60008061058861069e565b905060006105968286610617565b9050838110156105db576040517f08c379a00000000000000000000000000000000000000000000000000000000081526004016105d290610f44565b60405180910390fd5b6105e882868684036106a6565b60019250505092915050565b6000806105ff61069e565b905061060c8185856108fd565b600191505092915050565b6000600160008473ffffffffffffffffffffffffffffffffffffffff1673ffffffffffffffffffffffffffffffffffffffff16815260200190815260200160002060008373ffffffffffffffffffffffffffffffffffffffff1673ffffffffffffffffffffffffffffffffffffffff16815260200190815260200160002054905092915050565b600033905090565b600073ffffffffffffffffffffffffffffffffffffffff168373ffffffffffffffffffffffffffffffffffffffff161415610716576040517f08c379a000000000000000000000000000000000000000000000000000000000815260040161070d90610f24565b60405180910390fd5b600073ffffffffffffffffffffffffffffffffffffffff168273ffffffffffffffffffffffffffffffffffffffff161415610786576040517f08c379a000000000000000000000000000000000000000000000000000000000815260040161077d90610ea4565b60405180910390fd5b80600160008573ffffffffffffffffffffffffffffffffffffffff1673ffffffffffffffffffffffffffffffffffffffff16815260200190815260200160002060008473ffffffffffffffffffffffffffffffffffffffff1673ffffffffffffffffffffffffffffffffffffffff168152602001908152602001600020819055508173ffffffffffffffffffffffffffffffffffffffff168373ffffffffffffffffffffffffffffffffffffffff167f8c5be1e5ebec7d5bd14f71427d1e84f3dd0314c0f7b2291e5b200ac8c7c3b925836040516108649190610f64565b60405180910390a3505050565b600061087d8484610617565b90507fffffffffffffffffffffffffffffffffffffffffffffffffffffffffffffffff81146108f757818110156108e9576040517f08c379a00000000000000000000000000000000000000000000000000000000081526004016108e090610ec4565b60405180910390fd5b6108f684848484036106a6565b5b50505050565b600073ffffffffffffffffffffffffffffffffffffffff168373ffffffffffffffffffffffffffffffffffffffff16141561096d576040517f08c379a000000000000000000000000000000000000000000000000000000000815260040161096490610f04565b60405180910390fd5b600073ffffffffffffffffffffffffffffffffffffffff168273ffffffffffffffffffffffffffffffffffffffff1614156109dd576040517f08c379a00000000000000000000000000000000000000000000000000000000081526004016109d490610e84565b60405180910390fd5b6109e8838383610b75565b60008060008573ffffffffffffffffffffffffffffffffffffffff1673ffffffffffffffffffffffffffffffffffffffff16815260200190815260200160002054905081811015610a6e576040517f08c379a0000000000000000000000000000000000000000000000000000000008152600401610a6590610ee4565b60405180910390fd5b8181036000808673ffffffffffffffffffffffffffffffffffffffff1673ffffffffffffffffffffffffffffffffffffffff16815260200190815260200160002081905550816000808573ffffffffffffffffffffffffffffffffffffffff1673ffffffffffffffffffffffffffffffffffffffff168152602001908152602001600020600082825401925050819055508273ffffffffffffffffffffffffffffffffffffffff168473ffffffffffffffffffffffffffffffffffffffff167fddf252ad1be2c89b69c2b068fc378daa952ba7f163c4a11628f55a4df523b3ef84604051610b5c9190610f64565b60405180910390a3610b6f848484610b7a565b50505050565b505050565b505050565b600081359050610b8e81611338565b92915050565b600081359050610ba38161134f565b92915050565b600060208284031215610bbb57600080fd5b6000610bc984828501610b7f565b91505092915050565b60008060408385031215610be557600080fd5b6000610bf385828601610b7f565b9250506020610c0485828601610b7f565b9150509250929050565b600080600060608486031215610c2357600080fd5b6000610c3186828701610b7f565b9350506020610c4286828701610b7f565b9250506040610c5386828701610b94565b9150509250925092565b60008060408385031215610c7057600080fd5b6000610c7e85828601610b7f565b9250506020610c8f85828601610b94565b9150509250929050565b600060208284031215610cab57600080fd5b6000610cb984828501610b94565b91505092915050565b610ccb8161100c565b82525050565b610cda8161101e565b82525050565b6000610ceb82610f9a565b610cf58185610fa5565b9350610d05818560208601611061565b610d0e81611124565b840191505092915050565b6000610d26602383610fa5565b9150610d3182611135565b604082019050919050565b6000610d49602283610fa5565b9150610d5482611184565b604082019050919050565b6000610d6c601d83610fa5565b9150610d77826111d3565b602082019050919050565b6000610d8f602683610fa5565b9150610d9a826111fc565b604082019050919050565b6000610db2602583610fa5565b9150610dbd8261124b565b604082019050919050565b6000610dd5602483610fa5565b9150610de08261129a565b604082019050919050565b6000610df8602583610fa5565b9150610e03826112e9565b604082019050919050565b610e178161104a565b82525050565b610e2681611054565b82525050565b6000602082019050610e416000830184610cc2565b92915050565b6000602082019050610e5c6000830184610cd1565b92915050565b60006020820190508181036000830152610e7c8184610ce0565b905092915050565b60006020820190508181036000830152610e9d81610d19565b9050919050565b60006020820190508181036000830152610ebd81610d3c565b9050919050565b60006020820190508181036000830152610edd81610d5f565b9050919050565b60006020820190508181036000830152610efd81610d82565b9050919050565b60006020820190508181036000830152610f1d81610da5565b9050919050565b60006020820190508181036000830152610f3d81610dc8565b9050919050565b60006020820190508181036000830152610f5d81610deb565b9050919050565b6000602082019050610f796000830184610e0e565b92915050565b6000602082019050610f946000830184610e1d565b92915050565b600081519050919050565b600082825260208201905092915050565b6000610fc18261104a565b9150610fcc8361104a565b9250827fffffffffffffffffffffffffffffffffffffffffffffffffffffffffffffffff03821115611001576110006110c6565b5b828201905092915050565b60006110178261102a565b9050919050565b60008115159050919050565b600073ffffffffffffffffffffffffffffffffffffffff82169050919050565b6000819050919050565b600060ff82169050919050565b60005b8381101561107f578082015181840152602081019050611064565b8381111561108e576000848401525b50505050565b600060028204905060018216806110ac57607f821691505b602082108114156110c0576110bf6110f5565b5b50919050565b7f4e487b7100000000000000000000000000000000000000000000000000000000600052601160045260246000fd5b7f4e487b7100000000000000000000000000000000000000000000000000000000600052602260045260246000fd5b6000601f19601f8301169050919050565b7f45524332303a207472616e7366657220746f20746865207a65726f206164647260008201527f6573730000000000000000000000000000000000000000000000000000000000602082015250565b7f45524332303a20617070726f766520746f20746865207a65726f20616464726560008201527f7373000000000000000000000000000000000000000000000000000000000000602082015250565b7f45524332303a20696e73756666696369656e7420616c6c6f77616e6365000000600082015250565b7f45524332303a207472616e7366657220616d6f756e742065786365656473206260008201527f616c616e63650000000000000000000000000000000000000000000000000000602082015250565b7f45524332303a207472616e736665722066726f6d20746865207a65726f20616460008201527f6472657373000000000000000000000000000000000000000000000000000000602082015250565b7f45524332303a20617070726f76652066726f6d20746865207a65726f2061646460008201527f7265737300000000000000000000000000000000000000000000000000000000602082015250565b7f45524332303a2064656372656173656420616c6c6f77616e63652062656c6f7760008201527f207a65726f000000000000000000000000000000000000000000000000000000602082015250565b6113418161100c565b811461134c57600080fd5b50565b6113588161104a565b811461136357600080fd5b5056fea264697066735822122088581e5b32b084a142890a3029f7e7d584d5b85378be5a673a978161f8fa27ae64736f6c63430008010033",
  "linkReferences": {},
  "deployedLinkReferences": {}
}