{
  "_format": "hh-sol-artifact-1",
  "contractName": "Token",
  "sourceName": "contracts/token.sol",
  "abi": [
    {
      "inputs": [
        {
          "internalType": "string",
          "name": "name",
          "type": "string"
        },
        {
          "internalType": "string",
          "name": "symbol",
          "type": "string"
        }
      ],
      "stateMutability": "nonpayable",
      "type": "constructor"
    },
    {
      "anonymous": false,
      "inputs": [
        {
          "indexed": true,
          "internalType": "address",
          "name": "owner",
          "type": "address"
        },
        {
          "indexed": true,
          "internalType": "address",
          "name": "spender",
          "type": "address"
        },
        {
          "indexed": false,
          "internalType": "uint256",
          "name": "value",
          "type": "uint256"
        }
      ],
      "name": "Approval",
      "type": "event"
    },
    {
      "anonymous": false,
      "inputs": [
        {
          "indexed": true,
          "internalType": "address",
          "name": "from",
          "type": "address"
        },
        {
          "indexed": true,
          "internalType": "address",
          "name": "to",
          "type": "address"
        },
        {
          "indexed": false,
          "internalType": "uint256",
          "name": "value",
          "type": "uint256"
        }
      ],
      "name": "Transfer",
      "type": "event"
    },
    {
      "inputs": [
        {
          "internalType": "address",
          "name": "owner",
          "type": "address"
        },
        {
          "internalType": "address",
          "name": "spender",
          "type": "address"
        }
      ],
      "name": "allowance",
      "outputs": [
        {
          "internalType": "uint256",
          "name": "",
          "type": "uint256"
        }
      ],
      "stateMutability": "view",
      "type": "function"
    },
    {
      "inputs": [
        {
          "internalType": "address",
          "name": "spender",
          "type": "address"
        },
        {
          "internalType": "uint256",
          "name": "amount",
          "type": "uint256"
        }
      ],
      "name": "approve",
      "outputs": [
        {
          "internalType": "bool",
          "name": "",
          "type": "bool"
        }
      ],
      "stateMutability": "nonpayable",
      "type": "function"
    },
    {
      "inputs": [
        {
          "internalType": "address",
          "name": "account",
          "type": "address"
        }
      ],
      "name": "balanceOf",
      "outputs": [
        {
          "internalType": "uint256",
          "name": "",
          "type": "uint256"
        }
      ],
      "stateMutability": "view",
      "type": "function"
    },
    {
      "inputs": [],
      "name": "decimals",
      "outputs": [
        {
          "internalType": "uint8",
          "name": "",
          "type": "uint8"
        }
      ],
      "stateMutability": "view",
      "type": "function"
    },
    {
      "inputs": [
        {
          "internalType": "address",
          "name": "spender",
          "type": "address"
        },
        {
          "internalType": "uint256",
          "name": "subtractedValue",
          "type": "uint256"
        }
      ],
      "name": "decreaseAllowance",
      "outputs": [
        {
          "internalType": "bool",
          "name": "",
          "type": "bool"
        }
      ],
      "stateMutability": "nonpayable",
      "type": "function"
    },
    {
      "inputs": [
        {
          "internalType": "address",
          "name": "spender",
          "type": "address"
        },
        {
          "internalType": "uint256",
          "name": "addedValue",
          "type": "uint256"
        }
      ],
      "name": "increaseAllowance",
      "outputs": [
        {
          "internalType": "bool",
          "name": "",
          "type": "bool"
        }
      ],
      "stateMutability": "nonpayable",
      "type": "function"
    },
    {
      "inputs": [],
      "name": "name",
      "outputs": [
        {
          "internalType": "string",
          "name": "",
          "type": "string"
        }
      ],
      "stateMutability": "view",
      "type": "function"
    },
    {
      "inputs": [],
      "name": "owner",
      "outputs": [
        {
          "internalType": "address",
          "name": "",
          "type": "address"
        }
      ],
      "stateMutability": "view",
      "type": "function"
    },
    {
      "inputs": [],
      "name": "symbol",
      "outputs": [
        {
          "internalType": "string",
          "name": "",
          "type": "string"
        }
      ],
      "stateMutability": "view",
      "type": "function"
    },
    {
      "inputs": [],
      "name": "totalSupply",
      "outputs": [
        {
          "internalType": "uint256",
          "name": "",
          "type": "uint256"
        }
      ],
      "stateMutability": "view",
      "type": "function"
    },
    {
      "inputs": [
        {
          "internalType": "address",
          "name": "to",
          "type": "address"
        },
        {
          "internalType": "uint256",
          "name": "amount",
          "type": "uint256"
        }
      ],
      "name": "transfer",
      "outputs": [
        {
          "internalType": "bool",
          "name": "",
          "type": "bool"
        }
      ],
      "stateMutability": "nonpayable",
      "type": "function"
    },
    {
      "inputs": [
        {
          "internalType": "address",
          "name": "from",
          "type": "address"
        },
        {
          "internalType": "address",
          "name": "to",
          "type": "address"
        },
        {
          "internalType": "uint256",
          "name": "amount",
          "type": "uint256"
        }
      ],
      "name": "transferFrom",
      "outputs": [
        {
          "internalType": "bool",
          "name": "",
          "type": "bool"
        }
      ],
      "stateMutability": "nonpayable",
      "type": "function"
    }
  ],
  "bytecode": "0x60806040523480156200001157600080fd5b5060405162001f9b38038062001f9b833981810160405281019062000037919062000523565b818181600390816200004a9190620007f3565b5080600490816200005c9190620007f3565b5050506200009f33620000746200010060201b60201c565b60ff16600a62000085919062000a5d565b606462000093919062000aae565b6200010960201b60201c565b620000f86040518060400160405280600781526020017f646563696d616c00000000000000000000000000000000000000000000000000815250620000e96200010060201b60201c565b60ff166200027660201b60201c565b505062000c89565b60006012905090565b600073ffffffffffffffffffffffffffffffffffffffff168273ffffffffffffffffffffffffffffffffffffffff16036200017b576040517f08c379a0000000000000000000000000000000000000000000000000000000008152600401620001729062000b5a565b60405180910390fd5b6200018f600083836200031c60201b60201c565b8060026000828254620001a3919062000b7c565b92505081905550806000808473ffffffffffffffffffffffffffffffffffffffff1673ffffffffffffffffffffffffffffffffffffffff168152602001908152602001600020600082825401925050819055508173ffffffffffffffffffffffffffffffffffffffff16600073ffffffffffffffffffffffffffffffffffffffff167fddf252ad1be2c89b69c2b068fc378daa952ba7f163c4a11628f55a4df523b3ef8360405162000256919062000bc8565b60405180910390a362000272600083836200032160201b60201c565b5050565b6200031882826040516024016200028f92919062000c26565b6040516020818303038152906040527fb60e72cc000000000000000000000000000000000000000000000000000000007bffffffffffffffffffffffffffffffffffffffffffffffffffffffff19166020820180517bffffffffffffffffffffffffffffffffffffffffffffffffffffffff83818316178352505050506200032660201b60201c565b5050565b505050565b505050565b6200034c81620003476200034f60201b620005ee176200037060201b60201c565b60201c565b50565b60006a636f6e736f6c652e6c6f679050600080835160208501845afa505050565b6200038460201b62000aec17819050919050565b6200038e62000c5a565b565b6000604051905090565b600080fd5b600080fd5b600080fd5b600080fd5b6000601f19601f8301169050919050565b7f4e487b7100000000000000000000000000000000000000000000000000000000600052604160045260246000fd5b620003f982620003ae565b810181811067ffffffffffffffff821117156200041b576200041a620003bf565b5b80604052505050565b60006200043062000390565b90506200043e8282620003ee565b919050565b600067ffffffffffffffff821115620004615762000460620003bf565b5b6200046c82620003ae565b9050602081019050919050565b60005b83811015620004995780820151818401526020810190506200047c565b60008484015250505050565b6000620004bc620004b68462000443565b62000424565b905082815260208101848484011115620004db57620004da620003a9565b5b620004e884828562000479565b509392505050565b600082601f830112620005085762000507620003a4565b5b81516200051a848260208601620004a5565b91505092915050565b600080604083850312156200053d576200053c6200039a565b5b600083015167ffffffffffffffff8111156200055e576200055d6200039f565b5b6200056c85828601620004f0565b925050602083015167ffffffffffffffff81111562000590576200058f6200039f565b5b6200059e85828601620004f0565b9150509250929050565b600081519050919050565b7f4e487b7100000000000000000000000000000000000000000000000000000000600052602260045260246000fd5b60006002820490506001821680620005fb57607f821691505b602082108103620006115762000610620005b3565b5b50919050565b60008190508160005260206000209050919050565b60006020601f8301049050919050565b600082821b905092915050565b6000600883026200067b7fffffffffffffffffffffffffffffffffffffffffffffffffffffffffffffffff826200063c565b6200068786836200063c565b95508019841693508086168417925050509392505050565b6000819050919050565b6000819050919050565b6000620006d4620006ce620006c8846200069f565b620006a9565b6200069f565b9050919050565b6000819050919050565b620006f083620006b3565b62000708620006ff82620006db565b84845462000649565b825550505050565b600090565b6200071f62000710565b6200072c818484620006e5565b505050565b5b8181101562000754576200074860008262000715565b60018101905062000732565b5050565b601f821115620007a3576200076d8162000617565b62000778846200062c565b8101602085101562000788578190505b620007a062000797856200062c565b83018262000731565b50505b505050565b600082821c905092915050565b6000620007c860001984600802620007a8565b1980831691505092915050565b6000620007e38383620007b5565b9150826002028217905092915050565b620007fe82620005a8565b67ffffffffffffffff8111156200081a5762000819620003bf565b5b620008268254620005e2565b6200083382828562000758565b600060209050601f8311600181146200086b576000841562000856578287015190505b620008628582620007d5565b865550620008d2565b601f1984166200087b8662000617565b60005b82811015620008a5578489015182556001820191506020850194506020810190506200087e565b86831015620008c55784890151620008c1601f891682620007b5565b8355505b6001600288020188555050505b505050505050565b7f4e487b7100000000000000000000000000000000000000000000000000000000600052601160045260246000fd5b60008160011c9050919050565b6000808291508390505b6001851115620009685780860481111562000940576200093f620008da565b5b6001851615620009505780820291505b8081029050620009608562000909565b945062000920565b94509492505050565b60008262000983576001905062000a56565b8162000993576000905062000a56565b8160018114620009ac5760028114620009b757620009ed565b600191505062000a56565b60ff841115620009cc57620009cb620008da565b5b8360020a915084821115620009e657620009e5620008da565b5b5062000a56565b5060208310610133831016604e8410600b841016171562000a275782820a90508381111562000a215762000a20620008da565b5b62000a56565b62000a36848484600162000916565b9250905081840481111562000a505762000a4f620008da565b5b81810290505b9392505050565b600062000a6a826200069f565b915062000a77836200069f565b925062000aa67fffffffffffffffffffffffffffffffffffffffffffffffffffffffffffffffff848462000971565b905092915050565b600062000abb826200069f565b915062000ac8836200069f565b925082820262000ad8816200069f565b9150828204841483151762000af25762000af1620008da565b5b5092915050565b600082825260208201905092915050565b7f45524332303a206d696e7420746f20746865207a65726f206164647265737300600082015250565b600062000b42601f8362000af9565b915062000b4f8262000b0a565b602082019050919050565b6000602082019050818103600083015262000b758162000b33565b9050919050565b600062000b89826200069f565b915062000b96836200069f565b925082820190508082111562000bb15762000bb0620008da565b5b92915050565b62000bc2816200069f565b82525050565b600060208201905062000bdf600083018462000bb7565b92915050565b600062000bf282620005a8565b62000bfe818562000af9565b935062000c1081856020860162000479565b62000c1b81620003ae565b840191505092915050565b6000604082019050818103600083015262000c42818562000be5565b905062000c53602083018462000bb7565b9392505050565b7f4e487b7100000000000000000000000000000000000000000000000000000000600052605160045260246000fd5b6113028062000c996000396000f3fe608060405234801561001057600080fd5b50600436106100b45760003560e01c806370a082311161007157806370a08231146101a35780638da5cb5b146101d357806395d89b41146101f1578063a457c2d71461020f578063a9059cbb1461023f578063dd62ed3e1461026f576100b4565b806306fdde03146100b9578063095ea7b3146100d757806318160ddd1461010757806323b872dd14610125578063313ce567146101555780633950935114610173575b600080fd5b6100c161029f565b6040516100ce9190610b86565b60405180910390f35b6100f160048036038101906100ec9190610c41565b610331565b6040516100fe9190610c9c565b60405180910390f35b61010f610354565b60405161011c9190610cc6565b60405180910390f35b61013f600480360381019061013a9190610ce1565b61035e565b60405161014c9190610c9c565b60405180910390f35b61015d61038d565b60405161016a9190610d50565b60405180910390f35b61018d60048036038101906101889190610c41565b610396565b60405161019a9190610c9c565b60405180910390f35b6101bd60048036038101906101b89190610d6b565b6103cd565b6040516101ca9190610cc6565b60405180910390f35b6101db610415565b6040516101e89190610da7565b60405180910390f35b6101f961043b565b6040516102069190610b86565b60405180910390f35b61022960048036038101906102249190610c41565b6104cd565b6040516102369190610c9c565b60405180910390f35b61025960048036038101906102549190610c41565b610544565b6040516102669190610c9c565b60405180910390f35b61028960048036038101906102849190610dc2565b610567565b6040516102969190610cc6565b60405180910390f35b6060600380546102ae90610e31565b80601f01602080910402602001604051908101604052809291908181526020018280546102da90610e31565b80156103275780601f106102fc57610100808354040283529160200191610327565b820191906000526020600020905b81548152906001019060200180831161030a57829003601f168201915b5050505050905090565b60008061033c61060f565b9050610349818585610617565b600191505092915050565b6000600254905090565b60008061036961060f565b90506103768582856107e0565b61038185858561086c565b60019150509392505050565b60006012905090565b6000806103a161060f565b90506103c28185856103b38589610567565b6103bd9190610e91565b610617565b600191505092915050565b60008060008373ffffffffffffffffffffffffffffffffffffffff1673ffffffffffffffffffffffffffffffffffffffff168152602001908152602001600020549050919050565b600560009054906101000a900473ffffffffffffffffffffffffffffffffffffffff1681565b60606004805461044a90610e31565b80601f016020809104026020016040519081016040528092919081815260200182805461047690610e31565b80156104c35780601f10610498576101008083540402835291602001916104c3565b820191906000526020600020905b8154815290600101906020018083116104a657829003601f168201915b5050505050905090565b6000806104d861060f565b905060006104e68286610567565b90508381101561052b576040517f08c379a000000000000000000000000000000000000000000000000000000000815260040161052290610f37565b60405180910390fd5b6105388286868403610617565b60019250505092915050565b60008061054f61060f565b905061055c81858561086c565b600191505092915050565b6000600160008473ffffffffffffffffffffffffffffffffffffffff1673ffffffffffffffffffffffffffffffffffffffff16815260200190815260200160002060008373ffffffffffffffffffffffffffffffffffffffff1673ffffffffffffffffffffffffffffffffffffffff16815260200190815260200160002054905092915050565b60006a636f6e736f6c652e6c6f679050600080835160208501845afa505050565b600033905090565b600073ffffffffffffffffffffffffffffffffffffffff168373ffffffffffffffffffffffffffffffffffffffff1603610686576040517f08c379a000000000000000000000000000000000000000000000000000000000815260040161067d90610fc9565b60405180910390fd5b600073ffffffffffffffffffffffffffffffffffffffff168273ffffffffffffffffffffffffffffffffffffffff16036106f5576040517f08c379a00000000000000000000000000000000000000000000000000000000081526004016106ec9061105b565b60405180910390fd5b80600160008573ffffffffffffffffffffffffffffffffffffffff1673ffffffffffffffffffffffffffffffffffffffff16815260200190815260200160002060008473ffffffffffffffffffffffffffffffffffffffff1673ffffffffffffffffffffffffffffffffffffffff168152602001908152602001600020819055508173ffffffffffffffffffffffffffffffffffffffff168373ffffffffffffffffffffffffffffffffffffffff167f8c5be1e5ebec7d5bd14f71427d1e84f3dd0314c0f7b2291e5b200ac8c7c3b925836040516107d39190610cc6565b60405180910390a3505050565b60006107ec8484610567565b90507fffffffffffffffffffffffffffffffffffffffffffffffffffffffffffffffff81146108665781811015610858576040517f08c379a000000000000000000000000000000000000000000000000000000000815260040161084f906110c7565b60405180910390fd5b6108658484848403610617565b5b50505050565b600073ffffffffffffffffffffffffffffffffffffffff168373ffffffffffffffffffffffffffffffffffffffff16036108db576040517f08c379a00000000000000000000000000000000000000000000000000000000081526004016108d290611159565b60405180910390fd5b600073ffffffffffffffffffffffffffffffffffffffff168273ffffffffffffffffffffffffffffffffffffffff160361094a576040517f08c379a0000000000000000000000000000000000000000000000000000000008152600401610941906111eb565b60405180910390fd5b610955838383610ae2565b60008060008573ffffffffffffffffffffffffffffffffffffffff1673ffffffffffffffffffffffffffffffffffffffff168152602001908152602001600020549050818110156109db576040517f08c379a00000000000000000000000000000000000000000000000000000000081526004016109d29061127d565b60405180910390fd5b8181036000808673ffffffffffffffffffffffffffffffffffffffff1673ffffffffffffffffffffffffffffffffffffffff16815260200190815260200160002081905550816000808573ffffffffffffffffffffffffffffffffffffffff1673ffffffffffffffffffffffffffffffffffffffff168152602001908152602001600020600082825401925050819055508273ffffffffffffffffffffffffffffffffffffffff168473ffffffffffffffffffffffffffffffffffffffff167fddf252ad1be2c89b69c2b068fc378daa952ba7f163c4a11628f55a4df523b3ef84604051610ac99190610cc6565b60405180910390a3610adc848484610ae7565b50505050565b505050565b505050565b610af461129d565b565b600081519050919050565b600082825260208201905092915050565b60005b83811015610b30578082015181840152602081019050610b15565b60008484015250505050565b6000601f19601f8301169050919050565b6000610b5882610af6565b610b628185610b01565b9350610b72818560208601610b12565b610b7b81610b3c565b840191505092915050565b60006020820190508181036000830152610ba08184610b4d565b905092915050565b600080fd5b600073ffffffffffffffffffffffffffffffffffffffff82169050919050565b6000610bd882610bad565b9050919050565b610be881610bcd565b8114610bf357600080fd5b50565b600081359050610c0581610bdf565b92915050565b6000819050919050565b610c1e81610c0b565b8114610c2957600080fd5b50565b600081359050610c3b81610c15565b92915050565b60008060408385031215610c5857610c57610ba8565b5b6000610c6685828601610bf6565b9250506020610c7785828601610c2c565b9150509250929050565b60008115159050919050565b610c9681610c81565b82525050565b6000602082019050610cb16000830184610c8d565b92915050565b610cc081610c0b565b82525050565b6000602082019050610cdb6000830184610cb7565b92915050565b600080600060608486031215610cfa57610cf9610ba8565b5b6000610d0886828701610bf6565b9350506020610d1986828701610bf6565b9250506040610d2a86828701610c2c565b9150509250925092565b600060ff82169050919050565b610d4a81610d34565b82525050565b6000602082019050610d656000830184610d41565b92915050565b600060208284031215610d8157610d80610ba8565b5b6000610d8f84828501610bf6565b91505092915050565b610da181610bcd565b82525050565b6000602082019050610dbc6000830184610d98565b92915050565b60008060408385031215610dd957610dd8610ba8565b5b6000610de785828601610bf6565b9250506020610df885828601610bf6565b9150509250929050565b7f4e487b7100000000000000000000000000000000000000000000000000000000600052602260045260246000fd5b60006002820490506001821680610e4957607f821691505b602082108103610e5c57610e5b610e02565b5b50919050565b7f4e487b7100000000000000000000000000000000000000000000000000000000600052601160045260246000fd5b6000610e9c82610c0b565b9150610ea783610c0b565b9250828201905080821115610ebf57610ebe610e62565b5b92915050565b7f45524332303a2064656372656173656420616c6c6f77616e63652062656c6f7760008201527f207a65726f000000000000000000000000000000000000000000000000000000602082015250565b6000610f21602583610b01565b9150610f2c82610ec5565b604082019050919050565b60006020820190508181036000830152610f5081610f14565b9050919050565b7f45524332303a20617070726f76652066726f6d20746865207a65726f2061646460008201527f7265737300000000000000000000000000000000000000000000000000000000602082015250565b6000610fb3602483610b01565b9150610fbe82610f57565b604082019050919050565b60006020820190508181036000830152610fe281610fa6565b9050919050565b7f45524332303a20617070726f766520746f20746865207a65726f20616464726560008201527f7373000000000000000000000000000000000000000000000000000000000000602082015250565b6000611045602283610b01565b915061105082610fe9565b604082019050919050565b6000602082019050818103600083015261107481611038565b9050919050565b7f45524332303a20696e73756666696369656e7420616c6c6f77616e6365000000600082015250565b60006110b1601d83610b01565b91506110bc8261107b565b602082019050919050565b600060208201905081810360008301526110e0816110a4565b9050919050565b7f45524332303a207472616e736665722066726f6d20746865207a65726f20616460008201527f6472657373000000000000000000000000000000000000000000000000000000602082015250565b6000611143602583610b01565b915061114e826110e7565b604082019050919050565b6000602082019050818103600083015261117281611136565b9050919050565b7f45524332303a207472616e7366657220746f20746865207a65726f206164647260008201527f6573730000000000000000000000000000000000000000000000000000000000602082015250565b60006111d5602383610b01565b91506111e082611179565b604082019050919050565b60006020820190508181036000830152611204816111c8565b9050919050565b7f45524332303a207472616e7366657220616d6f756e742065786365656473206260008201527f616c616e63650000000000000000000000000000000000000000000000000000602082015250565b6000611267602683610b01565b91506112728261120b565b604082019050919050565b600060208201905081810360008301526112968161125a565b9050919050565b7f4e487b7100000000000000000000000000000000000000000000000000000000600052605160045260246000fdfea2646970667358221220a741c1e2e4a3297f4a85531fc55dc65f16dde4d19da4d81e61ebe7763d64cafc64736f6c63430008130033",
  "linkReferences": {},
  "deployedLinkReferences": {}
}